{
  "_format": "hh-sol-artifact-1",
  "contractName": "OfferFactory",
  "sourceName": "contracts/OfferFactory.sol",
  "abi": [
    {
      "anonymous": false,
      "inputs": [
        {
          "indexed": false,
          "internalType": "address",
          "name": "offerAddress",
          "type": "address"
        }
      ],
      "name": "NewOffer",
      "type": "event"
    },
    {
      "inputs": [
        {
          "internalType": "address",
          "name": "offerContractAddress",
          "type": "address"
        }
      ],
      "name": "addOffer",
      "outputs": [],
      "stateMutability": "nonpayable",
      "type": "function"
    },
    {
      "inputs": [
        {
          "internalType": "uint256",
          "name": "index",
          "type": "uint256"
        }
      ],
      "name": "getAddressOfOffer",
      "outputs": [
        {
          "internalType": "address",
          "name": "",
          "type": "address"
        }
      ],
      "stateMutability": "nonpayable",
      "type": "function"
    },
    {
      "inputs": [
        {
          "internalType": "string",
          "name": "description",
          "type": "string"
        },
        {
          "internalType": "uint256",
          "name": "incomeRequirement",
          "type": "uint256"
        },
        {
          "internalType": "uint256",
          "name": "depositRequirement",
          "type": "uint256"
        }
      ],
      "name": "newOffer",
      "outputs": [],
      "stateMutability": "nonpayable",
      "type": "function"
    },
    {
      "inputs": [
        {
          "internalType": "uint256",
          "name": "",
          "type": "uint256"
        }
      ],
      "name": "offers",
      "outputs": [
        {
          "internalType": "address",
          "name": "offerContractAddress",
          "type": "address"
        },
        {
          "internalType": "string",
          "name": "description",
          "type": "string"
        },
        {
          "internalType": "uint256",
          "name": "incomeRequirement",
          "type": "uint256"
        },
        {
          "internalType": "address",
          "name": "owner",
          "type": "address"
        }
      ],
      "stateMutability": "view",
      "type": "function"
    },
    {
      "inputs": [
        {
          "internalType": "address",
          "name": "offerContractAddress",
          "type": "address"
        }
      ],
      "name": "removeOffer",
      "outputs": [],
      "stateMutability": "nonpayable",
      "type": "function"
    }
  ],
  "bytecode": "0x608060405234801561001057600080fd5b50614276806100206000396000f3fe60806040523480156200001157600080fd5b50600436106200005e5760003560e01c806340d1090c14620000635780638a72ea6a1462000083578063a553269b14620000bc578063b2fe9ebd14620000dc578063bfe4ec4b14620000fc575b600080fd5b6200008160048036038101906200007b91906200096f565b62000132565b005b620000a160048036038101906200009b9190620009ea565b6200031e565b604051620000b3949392919062000afb565b60405180910390f35b620000da6004803603810190620000d4919062000b80565b6200042f565b005b620000fa6004803603810190620000f4919062000b80565b62000708565b005b6200011a6004803603810190620001149190620009ea565b6200070b565b60405162000129919062000bb2565b60405180910390f35b600083838360405162000145906200075c565b620001539392919062000bcf565b604051809103906000f08015801562000170573d6000803e3d6000fd5b5090506200017d6200076a565b81816000019073ffffffffffffffffffffffffffffffffffffffff16908173ffffffffffffffffffffffffffffffffffffffff16815250508481602001819052508381604001818152505033816060019073ffffffffffffffffffffffffffffffffffffffff16908173ffffffffffffffffffffffffffffffffffffffff1681525050600081908060018154018082558091505060019003906000526020600020906004020160009091909190915060008201518160000160006101000a81548173ffffffffffffffffffffffffffffffffffffffff021916908373ffffffffffffffffffffffffffffffffffffffff16021790555060208201518160010190816200028a919062000e49565b506040820151816002015560608201518160030160006101000a81548173ffffffffffffffffffffffffffffffffffffffff021916908373ffffffffffffffffffffffffffffffffffffffff16021790555050507f53aea87bce0fb612926e5d73c63f22aeb08f2ec77e3a1d9104c118e3ed60ac8c826040516200030f919062000bb2565b60405180910390a15050505050565b600081815481106200032f57600080fd5b90600052602060002090600402016000915090508060000160009054906101000a900473ffffffffffffffffffffffffffffffffffffffff16908060010180546200037a9062000c42565b80601f0160208091040260200160405190810160405280929190818152602001828054620003a89062000c42565b8015620003f95780601f10620003cd57610100808354040283529160200191620003f9565b820191906000526020600020905b815481529060010190602001808311620003db57829003601f168201915b5050505050908060020154908060030160009054906101000a900473ffffffffffffffffffffffffffffffffffffffff16905084565b60008173ffffffffffffffffffffffffffffffffffffffff16638da5cb5b6040518163ffffffff1660e01b8152600401602060405180830381865afa1580156200047d573d6000803e3d6000fd5b505050506040513d601f19601f82011682018060405250810190620004a3919062000f47565b905060008273ffffffffffffffffffffffffffffffffffffffff16637284e4166040518163ffffffff1660e01b8152600401600060405180830381865afa158015620004f3573d6000803e3d6000fd5b505050506040513d6000823e3d601f19601f820116820180604052508101906200051e919062000ff7565b905060008373ffffffffffffffffffffffffffffffffffffffff1663a92555f36040518163ffffffff1660e01b8152600401602060405180830381865afa1580156200056e573d6000803e3d6000fd5b505050506040513d601f19601f820116820180604052508101906200059491906200105f565b9050620005a06200076a565b84816000019073ffffffffffffffffffffffffffffffffffffffff16908173ffffffffffffffffffffffffffffffffffffffff16815250508281602001819052508181604001818152505083816060019073ffffffffffffffffffffffffffffffffffffffff16908173ffffffffffffffffffffffffffffffffffffffff1681525050600081908060018154018082558091505060019003906000526020600020906004020160009091909190915060008201518160000160006101000a81548173ffffffffffffffffffffffffffffffffffffffff021916908373ffffffffffffffffffffffffffffffffffffffff1602179055506020820151816001019081620006ad919062000e49565b506040820151816002015560608201518160030160006101000a81548173ffffffffffffffffffffffffffffffffffffffff021916908373ffffffffffffffffffffffffffffffffffffffff16021790555050505050505050565b50565b600080828154811062000723576200072262001091565b5b906000526020600020906004020160000160009054906101000a900473ffffffffffffffffffffffffffffffffffffffff169050919050565b61318080620010c183390190565b6040518060800160405280600073ffffffffffffffffffffffffffffffffffffffff1681526020016060815260200160008152602001600073ffffffffffffffffffffffffffffffffffffffff1681525090565b6000604051905090565b600080fd5b600080fd5b600080fd5b600080fd5b6000601f19601f8301169050919050565b7f4e487b7100000000000000000000000000000000000000000000000000000000600052604160045260246000fd5b6200082782620007dc565b810181811067ffffffffffffffff82111715620008495762000848620007ed565b5b80604052505050565b60006200085e620007be565b90506200086c82826200081c565b919050565b600067ffffffffffffffff8211156200088f576200088e620007ed565b5b6200089a82620007dc565b9050602081019050919050565b82818337600083830152505050565b6000620008cd620008c78462000871565b62000852565b905082815260208101848484011115620008ec57620008eb620007d7565b5b620008f9848285620008a7565b509392505050565b600082601f830112620009195762000918620007d2565b5b81356200092b848260208601620008b6565b91505092915050565b6000819050919050565b620009498162000934565b81146200095557600080fd5b50565b60008135905062000969816200093e565b92915050565b6000806000606084860312156200098b576200098a620007c8565b5b600084013567ffffffffffffffff811115620009ac57620009ab620007cd565b5b620009ba8682870162000901565b9350506020620009cd8682870162000958565b9250506040620009e08682870162000958565b9150509250925092565b60006020828403121562000a035762000a02620007c8565b5b600062000a138482850162000958565b91505092915050565b600073ffffffffffffffffffffffffffffffffffffffff82169050919050565b600062000a498262000a1c565b9050919050565b62000a5b8162000a3c565b82525050565b600081519050919050565b600082825260208201905092915050565b60005b8381101562000a9d57808201518184015260208101905062000a80565b60008484015250505050565b600062000ab68262000a61565b62000ac2818562000a6c565b935062000ad481856020860162000a7d565b62000adf81620007dc565b840191505092915050565b62000af58162000934565b82525050565b600060808201905062000b12600083018762000a50565b818103602083015262000b26818662000aa9565b905062000b37604083018562000aea565b62000b46606083018462000a50565b95945050505050565b62000b5a8162000a3c565b811462000b6657600080fd5b50565b60008135905062000b7a8162000b4f565b92915050565b60006020828403121562000b995762000b98620007c8565b5b600062000ba98482850162000b69565b91505092915050565b600060208201905062000bc9600083018462000a50565b92915050565b6000606082019050818103600083015262000beb818662000aa9565b905062000bfc602083018562000aea565b62000c0b604083018462000aea565b949350505050565b7f4e487b7100000000000000000000000000000000000000000000000000000000600052602260045260246000fd5b6000600282049050600182168062000c5b57607f821691505b60208210810362000c715762000c7062000c13565b5b50919050565b60008190508160005260206000209050919050565b60006020601f8301049050919050565b600082821b905092915050565b60006008830262000cdb7fffffffffffffffffffffffffffffffffffffffffffffffffffffffffffffffff8262000c9c565b62000ce7868362000c9c565b95508019841693508086168417925050509392505050565b6000819050919050565b600062000d2a62000d2462000d1e8462000934565b62000cff565b62000934565b9050919050565b6000819050919050565b62000d468362000d09565b62000d5e62000d558262000d31565b84845462000ca9565b825550505050565b600090565b62000d7562000d66565b62000d8281848462000d3b565b505050565b5b8181101562000daa5762000d9e60008262000d6b565b60018101905062000d88565b5050565b601f82111562000df95762000dc38162000c77565b62000dce8462000c8c565b8101602085101562000dde578190505b62000df662000ded8562000c8c565b83018262000d87565b50505b505050565b600082821c905092915050565b600062000e1e6000198460080262000dfe565b1980831691505092915050565b600062000e39838362000e0b565b9150826002028217905092915050565b62000e548262000a61565b67ffffffffffffffff81111562000e705762000e6f620007ed565b5b62000e7c825462000c42565b62000e8982828562000dae565b600060209050601f83116001811462000ec1576000841562000eac578287015190505b62000eb8858262000e2b565b86555062000f28565b601f19841662000ed18662000c77565b60005b8281101562000efb5784890151825560018201915060208501945060208101905062000ed4565b8683101562000f1b578489015162000f17601f89168262000e0b565b8355505b6001600288020188555050505b505050505050565b60008151905062000f418162000b4f565b92915050565b60006020828403121562000f605762000f5f620007c8565b5b600062000f708482850162000f30565b91505092915050565b600062000f9062000f8a8462000871565b62000852565b90508281526020810184848401111562000faf5762000fae620007d7565b5b62000fbc84828562000a7d565b509392505050565b600082601f83011262000fdc5762000fdb620007d2565b5b815162000fee84826020860162000f79565b91505092915050565b60006020828403121562001010576200100f620007c8565b5b600082015167ffffffffffffffff811115620010315762001030620007cd565b5b6200103f8482850162000fc4565b91505092915050565b60008151905062001059816200093e565b92915050565b600060208284031215620010785762001077620007c8565b5b6000620010888482850162001048565b91505092915050565b7f4e487b7100000000000000000000000000000000000000000000000000000000600052603260045260246000fdfe60806040526000600960006101000a81548160ff02191690831515021790555073ddafbb505ad214d7b80b1f830fccc89b60fb7a83600b60006101000a81548173ffffffffffffffffffffffffffffffffffffffff021916908373ffffffffffffffffffffffffffffffffffffffff1602179055503480156200008157600080fd5b5060405162003180380380620031808339818101604052810190620000a791906200029e565b8260029081620000b891906200055a565b50816001819055508060038190555050505062000641565b6000604051905090565b600080fd5b600080fd5b600080fd5b600080fd5b6000601f19601f8301169050919050565b7f4e487b7100000000000000000000000000000000000000000000000000000000600052604160045260246000fd5b6200013982620000ee565b810181811067ffffffffffffffff821117156200015b576200015a620000ff565b5b80604052505050565b600062000170620000d0565b90506200017e82826200012e565b919050565b600067ffffffffffffffff821115620001a157620001a0620000ff565b5b620001ac82620000ee565b9050602081019050919050565b60005b83811015620001d9578082015181840152602081019050620001bc565b60008484015250505050565b6000620001fc620001f68462000183565b62000164565b9050828152602081018484840111156200021b576200021a620000e9565b5b62000228848285620001b9565b509392505050565b600082601f830112620002485762000247620000e4565b5b81516200025a848260208601620001e5565b91505092915050565b6000819050919050565b620002788162000263565b81146200028457600080fd5b50565b60008151905062000298816200026d565b92915050565b600080600060608486031215620002ba57620002b9620000da565b5b600084015167ffffffffffffffff811115620002db57620002da620000df565b5b620002e98682870162000230565b9350506020620002fc8682870162000287565b92505060406200030f8682870162000287565b9150509250925092565b600081519050919050565b7f4e487b7100000000000000000000000000000000000000000000000000000000600052602260045260246000fd5b600060028204905060018216806200036c57607f821691505b60208210810362000382576200038162000324565b5b50919050565b60008190508160005260206000209050919050565b60006020601f8301049050919050565b600082821b905092915050565b600060088302620003ec7fffffffffffffffffffffffffffffffffffffffffffffffffffffffffffffffff82620003ad565b620003f88683620003ad565b95508019841693508086168417925050509392505050565b6000819050919050565b60006200043b620004356200042f8462000263565b62000410565b62000263565b9050919050565b6000819050919050565b62000457836200041a565b6200046f620004668262000442565b848454620003ba565b825550505050565b600090565b6200048662000477565b620004938184846200044c565b505050565b5b81811015620004bb57620004af6000826200047c565b60018101905062000499565b5050565b601f8211156200050a57620004d48162000388565b620004df846200039d565b81016020851015620004ef578190505b62000507620004fe856200039d565b83018262000498565b50505b505050565b600082821c905092915050565b60006200052f600019846008026200050f565b1980831691505092915050565b60006200054a83836200051c565b9150826002028217905092915050565b620005658262000319565b67ffffffffffffffff811115620005815762000580620000ff565b5b6200058d825462000353565b6200059a828285620004bf565b600060209050601f831160018114620005d25760008415620005bd578287015190505b620005c985826200053c565b86555062000639565b601f198416620005e28662000388565b60005b828110156200060c57848901518255600182019150602085019450602081019050620005e5565b868310156200062c578489015162000628601f8916826200051c565b8355505b6001600288020188555050505b505050505050565b612b2f80620006516000396000f3fe608060405234801561001057600080fd5b506004361061009e5760003560e01c80637284e416116100665780637284e416146101615780638bbcf85f1461017f5780638da5cb5b1461019d578063a92555f3146101bb578063d16c8330146101d95761009e565b8063233a1177146100a3578063331061ec146100bf57806343753b4d146100e057806363a3af801461011057806363de53231461012e575b600080fd5b6100bd60048036038101906100b89190611ee7565b6101f5565b005b6100c7610373565b6040516100d7949392919061208a565b60405180910390f35b6100fa60048036038101906100f591906120dd565b6104ce565b6040516101079190612146565b60405180910390f35b610118610747565b6040516101259190612146565b60405180910390f35b61014860048036038101906101439190612161565b61075a565b604051610158949392919061208a565b60405180910390f35b6101696108d7565b604051610176919061218e565b60405180910390f35b610187610965565b60405161019491906121bf565b60405180910390f35b6101a561096b565b6040516101b291906121da565b60405180910390f35b6101c361098f565b6040516101d091906121bf565b60405180910390f35b6101f360048036038101906101ee9190612161565b610995565b005b6000610203858585856104ce565b905080610245576040517f08c379a000000000000000000000000000000000000000000000000000000000815260040161023c90612241565b60405180910390fd5b61024d6119bd565b33816000019073ffffffffffffffffffffffffffffffffffffffff16908173ffffffffffffffffffffffffffffffffffffffff16815250508781602001819052508681604001819052506000816060019015159081151581525050600481908060018154018082558091505060019003906000526020600020906004020160009091909190915060008201518160000160006101000a81548173ffffffffffffffffffffffffffffffffffffffff021916908373ffffffffffffffffffffffffffffffffffffffff1602179055506020820151816001019081610330919061246d565b506040820151816002019081610346919061246d565b5060608201518160030160006101000a81548160ff02191690831515021790555050505050505050505050565b60058060000160009054906101000a900473ffffffffffffffffffffffffffffffffffffffff16908060010180546103aa90612290565b80601f01602080910402602001604051908101604052809291908181526020018280546103d690612290565b80156104235780601f106103f857610100808354040283529160200191610423565b820191906000526020600020905b81548152906001019060200180831161040657829003601f168201915b50505050509080600201805461043890612290565b80601f016020809104026020016040519081016040528092919081815260200182805461046490612290565b80156104b15780601f10610486576101008083540402835291602001916104b1565b820191906000526020600020905b81548152906001019060200180831161049457829003601f168201915b5050505050908060030160009054906101000a900460ff16905084565b60006104d86119fd565b6040518060400160405280876000600281106104f7576104f661253f565b5b60200201518152602001876001600281106105155761051461253f565b5b60200201518152508160000181905250604051806040016040528060405180604001604052808860006002811061054f5761054e61253f565b5b60200201516000600281106105675761056661253f565b5b60200201518152602001886000600281106105855761058461253f565b5b602002015160016002811061059d5761059c61253f565b5b602002015181525081526020016040518060400160405280886001600281106105c9576105c861253f565b5b60200201516000600281106105e1576105e061253f565b5b60200201518152602001886001600281106105ff576105fe61253f565b5b60200201516001600281106106175761061661253f565b5b602002015181525081525081602001819052506040518060400160405280856000600281106106495761064861253f565b5b60200201518152602001856001600281106106675761066661253f565b5b602002015181525081604001819052506000600167ffffffffffffffff81111561069457610693611b6e565b5b6040519080825280602002602001820160405280156106c25781602001602082028036833780820191505090505b50905060005b600181101561071b578481600181106106e4576106e361253f565b5b60200201518282815181106106fc576106fb61253f565b5b60200260200101818152505080806107139061259d565b9150506106c8565b5060006107288284610bbc565b036107385760019250505061073f565b6000925050505b949350505050565b600960009054906101000a900460ff1681565b6004818154811061076a57600080fd5b90600052602060002090600402016000915090508060000160009054906101000a900473ffffffffffffffffffffffffffffffffffffffff16908060010180546107b390612290565b80601f01602080910402602001604051908101604052809291908181526020018280546107df90612290565b801561082c5780601f106108015761010080835404028352916020019161082c565b820191906000526020600020905b81548152906001019060200180831161080f57829003601f168201915b50505050509080600201805461084190612290565b80601f016020809104026020016040519081016040528092919081815260200182805461086d90612290565b80156108ba5780601f1061088f576101008083540402835291602001916108ba565b820191906000526020600020905b81548152906001019060200180831161089d57829003601f168201915b5050505050908060030160009054906101000a900460ff16905084565b600280546108e490612290565b80601f016020809104026020016040519081016040528092919081815260200182805461091090612290565b801561095d5780601f106109325761010080835404028352916020019161095d565b820191906000526020600020905b81548152906001019060200180831161094057829003601f168201915b505050505081565b60035481565b60008054906101000a900473ffffffffffffffffffffffffffffffffffffffff1681565b60015481565b600960009054906101000a900460ff16156109e5576040517f08c379a00000000000000000000000000000000000000000000000000000000081526004016109dc90612631565b60405180910390fd5b6001600960006101000a81548160ff021916908315150217905550600160048281548110610a1657610a1561253f565b5b906000526020600020906004020160030160006101000a81548160ff02191690831515021790555060048181548110610a5257610a5161253f565b5b906000526020600020906004020160056000820160009054906101000a900473ffffffffffffffffffffffffffffffffffffffff168160000160006101000a81548173ffffffffffffffffffffffffffffffffffffffff021916908373ffffffffffffffffffffffffffffffffffffffff16021790555060018201816001019081610add9190612667565b5060028201816002019081610af29190612667565b506003820160009054906101000a900460ff168160030160006101000a81548160ff0219169083151502179055509050506000600560000160009054906101000a900473ffffffffffffffffffffffffffffffffffffffff1690508073ffffffffffffffffffffffffffffffffffffffff1663cf9579b9306040518263ffffffff1660e01b8152600401610b8691906121da565b600060405180830381600087803b158015610ba057600080fd5b505af1158015610bb4573d6000803e3d6000fd5b505050505050565b6000807f30644e72e131a029b85045b68181585d2833e84879b9709143e1f593f000000190506000610bec610daf565b905080608001515160018651610c02919061274f565b14610c42576040517f08c379a0000000000000000000000000000000000000000000000000000000008152600401610c39906127cf565b60405180910390fd5b60006040518060400160405280600081526020016000815250905060005b8651811015610d315783878281518110610c7d57610c7c61253f565b5b602002602001015110610cc5576040517f08c379a0000000000000000000000000000000000000000000000000000000008152600401610cbc9061283b565b60405180910390fd5b610d1c82610d178560800151600185610cde919061274f565b81518110610cef57610cee61253f565b5b60200260200101518a8581518110610d0a57610d0961253f565b5b60200260200101516111b3565b61128b565b91508080610d299061259d565b915050610c60565b50610d5b818360800151600081518110610d4e57610d4d61253f565b5b602002602001015161128b565b9050610d91610d6d8660000151611389565b8660200151846000015185602001518587604001518b60400151896060015161142e565b610da15760019350505050610da9565b600093505050505b92915050565b610db7611a30565b60405180604001604052807f2d4d9aa7e302d9df41749d5507949d05dbea33fbb16c643b22f599a2be6df2e281526020017f14bedd503c37ceb061d8ec60209fe345ce89830a19230301f076caff004d19268152508160000181905250604051806040016040528060405180604001604052807f0967032fcbf776d1afc985f88877f182d38480a653f2decaa9794cbc3bf3060c81526020017f0e187847ad4c798374d0d6732bf501847dd68bc0e071241e0213bc7fc13db7ab815250815260200160405180604001604052807f304cfbd1e08a704a99f5e847d93f8c3caafddec46b7a0d379da69a4d112346a781526020017f1739c1b1a457a8c7313123d24d2f9192f896b7c63eea05a9d57f06547ad0cec88152508152508160200181905250604051806040016040528060405180604001604052807f198e9393920d483a7260bfb731fb5d25f1aa493335a9e71297e485b7aef312c281526020017f1800deef121f1e76426a00665e5c4479674322d4f75edadd46debd5cd992f6ed815250815260200160405180604001604052807f090689d0585ff075ec9e99ad690c3395bc4b313370b38ef355acdadcd122975b81526020017f12c85ea5db8c6deb4aab71808dcb408fe3d1e7690c43d37b4ce6cc0166fa7daa8152508152508160400181905250604051806040016040528060405180604001604052807f083f0c1bfeeb43e500989acaa8dcf94fa0e630bd68bf9e4629fe0732260b3d5781526020017f1df228c3a987a43615b37d95b8db71d6235a13789aa2062549f9838d3961d299815250815260200160405180604001604052807f182a7b8b289c74e03afaf23dbe9038ba986ea3d621376e0684a1efd48d58b76281526020017f26aa66d52c137cb2dae34bc2dab05a5d5619de4953fd4682dc8df513f93153ed8152508152508160600181905250600267ffffffffffffffff81111561107e5761107d611b6e565b5b6040519080825280602002602001820160405280156110b757816020015b6110a4611a77565b81526020019060019003908161109c5790505b50816080018190525060405180604001604052807f29f54ef752bcfecd888b656f91f7401bdd2211174e791f9843a487a86702754381526020017f169b9d464cdbf78addb55bc66a0394eb9e48cb1fa5cfad7c45d7e9d340831a72815250816080015160008151811061112d5761112c61253f565b5b602002602001018190525060405180604001604052807f1e25bbf54459515a1405507bf98751f1c7dd209437de6ed059edaddf0fd7c82281526020017f2ff2caea9de541d4059abfe97d225aec151af4a77fd64a4bac9b2313e2b2f60081525081608001516001815181106111a5576111a461253f565b5b602002602001018190525090565b6111bb611a77565b6111c3611a91565b8360000151816000600381106111dc576111db61253f565b5b6020020181815250508360200151816001600381106111fe576111fd61253f565b5b602002018181525050828160026003811061121c5761121b61253f565b5b602002018181525050600060608360808460076107d05a03fa9050806000810361124257fe5b5080611283576040517f08c379a000000000000000000000000000000000000000000000000000000000815260040161127a906128a7565b60405180910390fd5b505092915050565b611293611a77565b61129b611ab3565b8360000151816000600481106112b4576112b361253f565b5b6020020181815250508360200151816001600481106112d6576112d561253f565b5b6020020181815250508260000151816002600481106112f8576112f761253f565b5b60200201818152505082602001518160036004811061131a5761131961253f565b5b602002018181525050600060608360c08460066107d05a03fa9050806000810361134057fe5b5080611381576040517f08c379a000000000000000000000000000000000000000000000000000000000815260040161137890612913565b60405180910390fd5b505092915050565b611391611a77565b60007f30644e72e131a029b85045b68181585d97816a916871ca8d3c208c16d87cfd479050600083600001511480156113ce575060008360200151145b156113f2576040518060400160405280600081526020016000815250915050611429565b6040518060400160405280846000015181526020018285602001516114179190612962565b836114229190612993565b8152509150505b919050565b600080600467ffffffffffffffff81111561144c5761144b611b6e565b5b60405190808252806020026020018201604052801561148557816020015b611472611a77565b81526020019060019003908161146a5790505b5090506000600467ffffffffffffffff8111156114a5576114a4611b6e565b5b6040519080825280602002602001820160405280156114de57816020015b6114cb611ad5565b8152602001906001900390816114c35790505b5090508a826000815181106114f6576114f561253f565b5b602002602001018190525088826001815181106115165761151561253f565b5b602002602001018190525086826002815181106115365761153561253f565b5b602002602001018190525084826003815181106115565761155561253f565b5b602002602001018190525089816000815181106115765761157561253f565b5b602002602001018190525087816001815181106115965761159561253f565b5b602002602001018190525085816002815181106115b6576115b561253f565b5b602002602001018190525083816003815181106115d6576115d561253f565b5b60200260200101819052506115eb82826115fb565b9250505098975050505050505050565b60008151835114611641576040517f08c379a000000000000000000000000000000000000000000000000000000000815260040161163890612a13565b60405180910390fd5b60008351905060006006826116569190612a33565b905060008167ffffffffffffffff81111561167457611673611b6e565b5b6040519080825280602002602001820160405280156116a25781602001602082028036833780820191505090505b50905060005b83811015611927578681815181106116c3576116c261253f565b5b6020026020010151600001518260006006846116df9190612a33565b6116e9919061274f565b815181106116fa576116f961253f565b5b6020026020010181815250508681815181106117195761171861253f565b5b6020026020010151602001518260016006846117359190612a33565b61173f919061274f565b815181106117505761174f61253f565b5b60200260200101818152505085818151811061176f5761176e61253f565b5b60200260200101516000015160006002811061178e5761178d61253f565b5b60200201518260026006846117a39190612a33565b6117ad919061274f565b815181106117be576117bd61253f565b5b6020026020010181815250508581815181106117dd576117dc61253f565b5b6020026020010151600001516001600281106117fc576117fb61253f565b5b60200201518260036006846118119190612a33565b61181b919061274f565b8151811061182c5761182b61253f565b5b60200260200101818152505085818151811061184b5761184a61253f565b5b60200260200101516020015160006002811061186a5761186961253f565b5b602002015182600460068461187f9190612a33565b611889919061274f565b8151811061189a5761189961253f565b5b6020026020010181815250508581815181106118b9576118b861253f565b5b6020026020010151602001516001600281106118d8576118d761253f565b5b60200201518260056006846118ed9190612a33565b6118f7919061274f565b815181106119085761190761253f565b5b602002602001018181525050808061191f9061259d565b9150506116a8565b50611930611afb565b6000602082602086026020860160086107d05a03fa9050806000810361195257fe5b5080611993576040517f08c379a000000000000000000000000000000000000000000000000000000000815260040161198a90612ad9565b60405180910390fd5b6000826000600181106119a9576119a861253f565b5b602002015114159550505050505092915050565b6040518060800160405280600073ffffffffffffffffffffffffffffffffffffffff16815260200160608152602001606081526020016000151581525090565b6040518060600160405280611a10611a77565b8152602001611a1d611ad5565b8152602001611a2a611a77565b81525090565b6040518060a00160405280611a43611a77565b8152602001611a50611ad5565b8152602001611a5d611ad5565b8152602001611a6a611ad5565b8152602001606081525090565b604051806040016040528060008152602001600081525090565b6040518060600160405280600390602082028036833780820191505090505090565b6040518060800160405280600490602082028036833780820191505090505090565b6040518060400160405280611ae8611b1d565b8152602001611af5611b1d565b81525090565b6040518060200160405280600190602082028036833780820191505090505090565b6040518060400160405280600290602082028036833780820191505090505090565b6000604051905090565b600080fd5b600080fd5b600080fd5b600080fd5b6000601f19601f8301169050919050565b7f4e487b7100000000000000000000000000000000000000000000000000000000600052604160045260246000fd5b611ba682611b5d565b810181811067ffffffffffffffff82111715611bc557611bc4611b6e565b5b80604052505050565b6000611bd8611b3f565b9050611be48282611b9d565b919050565b600067ffffffffffffffff821115611c0457611c03611b6e565b5b611c0d82611b5d565b9050602081019050919050565b82818337600083830152505050565b6000611c3c611c3784611be9565b611bce565b905082815260208101848484011115611c5857611c57611b58565b5b611c63848285611c1a565b509392505050565b600082601f830112611c8057611c7f611b53565b5b8135611c90848260208601611c29565b91505092915050565b600067ffffffffffffffff821115611cb457611cb3611b6e565b5b602082029050919050565b600080fd5b6000819050919050565b611cd781611cc4565b8114611ce257600080fd5b50565b600081359050611cf481611cce565b92915050565b6000611d0d611d0884611c99565b611bce565b90508060208402830185811115611d2757611d26611cbf565b5b835b81811015611d505780611d3c8882611ce5565b845260208401935050602081019050611d29565b5050509392505050565b600082601f830112611d6f57611d6e611b53565b5b6002611d7c848285611cfa565b91505092915050565b600067ffffffffffffffff821115611da057611d9f611b6e565b5b602082029050919050565b6000611dbe611db984611d85565b611bce565b90508060408402830185811115611dd857611dd7611cbf565b5b835b81811015611e015780611ded8882611d5a565b845260208401935050604081019050611dda565b5050509392505050565b600082601f830112611e2057611e1f611b53565b5b6002611e2d848285611dab565b91505092915050565b600067ffffffffffffffff821115611e5157611e50611b6e565b5b602082029050919050565b6000611e6f611e6a84611e36565b611bce565b90508060208402830185811115611e8957611e88611cbf565b5b835b81811015611eb25780611e9e8882611ce5565b845260208401935050602081019050611e8b565b5050509392505050565b600082601f830112611ed157611ed0611b53565b5b6001611ede848285611e5c565b91505092915050565b6000806000806000806101608789031215611f0557611f04611b49565b5b600087013567ffffffffffffffff811115611f2357611f22611b4e565b5b611f2f89828a01611c6b565b965050602087013567ffffffffffffffff811115611f5057611f4f611b4e565b5b611f5c89828a01611c6b565b9550506040611f6d89828a01611d5a565b9450506080611f7e89828a01611e0b565b935050610100611f9089828a01611d5a565b925050610140611fa289828a01611ebc565b9150509295509295509295565b600073ffffffffffffffffffffffffffffffffffffffff82169050919050565b6000611fda82611faf565b9050919050565b611fea81611fcf565b82525050565b600081519050919050565b600082825260208201905092915050565b60005b8381101561202a57808201518184015260208101905061200f565b60008484015250505050565b600061204182611ff0565b61204b8185611ffb565b935061205b81856020860161200c565b61206481611b5d565b840191505092915050565b60008115159050919050565b6120848161206f565b82525050565b600060808201905061209f6000830187611fe1565b81810360208301526120b18186612036565b905081810360408301526120c58185612036565b90506120d4606083018461207b565b95945050505050565b60008060008061012085870312156120f8576120f7611b49565b5b600061210687828801611d5a565b945050604061211787828801611e0b565b93505060c061212887828801611d5a565b92505061010061213a87828801611ebc565b91505092959194509250565b600060208201905061215b600083018461207b565b92915050565b60006020828403121561217757612176611b49565b5b600061218584828501611ce5565b91505092915050565b600060208201905081810360008301526121a88184612036565b905092915050565b6121b981611cc4565b82525050565b60006020820190506121d460008301846121b0565b92915050565b60006020820190506121ef6000830184611fe1565b92915050565b7f496e76616c69642070726f6f6600000000000000000000000000000000000000600082015250565b600061222b600d83611ffb565b9150612236826121f5565b602082019050919050565b6000602082019050818103600083015261225a8161221e565b9050919050565b7f4e487b7100000000000000000000000000000000000000000000000000000000600052602260045260246000fd5b600060028204905060018216806122a857607f821691505b6020821081036122bb576122ba612261565b5b50919050565b60008190508160005260206000209050919050565b60006020601f8301049050919050565b600082821b905092915050565b6000600883026123237fffffffffffffffffffffffffffffffffffffffffffffffffffffffffffffffff826122e6565b61232d86836122e6565b95508019841693508086168417925050509392505050565b6000819050919050565b600061236a61236561236084611cc4565b612345565b611cc4565b9050919050565b6000819050919050565b6123848361234f565b61239861239082612371565b8484546122f3565b825550505050565b600090565b6123ad6123a0565b6123b881848461237b565b505050565b5b818110156123dc576123d16000826123a5565b6001810190506123be565b5050565b601f821115612421576123f2816122c1565b6123fb846122d6565b8101602085101561240a578190505b61241e612416856122d6565b8301826123bd565b50505b505050565b600082821c905092915050565b600061244460001984600802612426565b1980831691505092915050565b600061245d8383612433565b9150826002028217905092915050565b61247682611ff0565b67ffffffffffffffff81111561248f5761248e611b6e565b5b6124998254612290565b6124a48282856123e0565b600060209050601f8311600181146124d757600084156124c5578287015190505b6124cf8582612451565b865550612537565b601f1984166124e5866122c1565b60005b8281101561250d578489015182556001820191506020850194506020810190506124e8565b8683101561252a5784890151612526601f891682612433565b8355505b6001600288020188555050505b505050505050565b7f4e487b7100000000000000000000000000000000000000000000000000000000600052603260045260246000fd5b7f4e487b7100000000000000000000000000000000000000000000000000000000600052601160045260246000fd5b60006125a882611cc4565b91507fffffffffffffffffffffffffffffffffffffffffffffffffffffffffffffffff82036125da576125d961256e565b5b600182019050919050565b7f4170706c6963616e7420616c72656164792063686f6f73656e00000000000000600082015250565b600061261b601983611ffb565b9150612626826125e5565b602082019050919050565b6000602082019050818103600083015261264a8161260e565b9050919050565b60008154905061266081612290565b9050919050565b81810361267557505061274d565b61267e82612651565b67ffffffffffffffff81111561269757612696611b6e565b5b6126a18254612290565b6126ac8282856123e0565b6000601f8311600181146126db57600084156126c9578287015490505b6126d38582612451565b865550612746565b601f1984166126e9876122c1565b96506126f4866122c1565b60005b8281101561271c578489015482556001820191506001850194506020810190506126f7565b868310156127395784890154612735601f891682612433565b8355505b6001600288020188555050505b5050505050505b565b600061275a82611cc4565b915061276583611cc4565b925082820190508082111561277d5761277c61256e565b5b92915050565b7f76657269666965722d6261642d696e7075740000000000000000000000000000600082015250565b60006127b9601283611ffb565b91506127c482612783565b602082019050919050565b600060208201905081810360008301526127e8816127ac565b9050919050565b7f76657269666965722d6774652d736e61726b2d7363616c61722d6669656c6400600082015250565b6000612825601f83611ffb565b9150612830826127ef565b602082019050919050565b6000602082019050818103600083015261285481612818565b9050919050565b7f70616972696e672d6d756c2d6661696c65640000000000000000000000000000600082015250565b6000612891601283611ffb565b915061289c8261285b565b602082019050919050565b600060208201905081810360008301526128c081612884565b9050919050565b7f70616972696e672d6164642d6661696c65640000000000000000000000000000600082015250565b60006128fd601283611ffb565b9150612908826128c7565b602082019050919050565b6000602082019050818103600083015261292c816128f0565b9050919050565b7f4e487b7100000000000000000000000000000000000000000000000000000000600052601260045260246000fd5b600061296d82611cc4565b915061297883611cc4565b92508261298857612987612933565b5b828206905092915050565b600061299e82611cc4565b91506129a983611cc4565b92508282039050818111156129c1576129c061256e565b5b92915050565b7f70616972696e672d6c656e677468732d6661696c656400000000000000000000600082015250565b60006129fd601683611ffb565b9150612a08826129c7565b602082019050919050565b60006020820190508181036000830152612a2c816129f0565b9050919050565b6000612a3e82611cc4565b9150612a4983611cc4565b9250817fffffffffffffffffffffffffffffffffffffffffffffffffffffffffffffffff0483118215151615612a8257612a8161256e565b5b828202905092915050565b7f70616972696e672d6f70636f64652d6661696c65640000000000000000000000600082015250565b6000612ac3601583611ffb565b9150612ace82612a8d565b602082019050919050565b60006020820190508181036000830152612af281612ab6565b905091905056fea2646970667358221220e68dba6d00ced375497bf52206634a35dc99a2dcd75bbe471492754da400bfb064736f6c63430008100033a2646970667358221220b4c65376f3b2ae031ec3829788520d370dd2c226a76082906b6ee775d674ea6f64736f6c63430008100033",
  "linkReferences": {},
  "deployedLinkReferences": {}
}