{
  "_format": "hh-sol-artifact-1",
  "contractName": "Escrow",
  "sourceName": "contracts/Escrow.sol",
  "abi": [
    {
      "inputs": [
        {
          "internalType": "string",
          "name": "_name",
          "type": "string"
        },
        {
          "internalType": "string",
          "name": "_selfDescription",
          "type": "string"
        },
        {
          "internalType": "address",
          "name": "_owner",
          "type": "address"
        },
        {
          "internalType": "address",
          "name": "_escrowFactory",
          "type": "address"
        }
      ],
      "stateMutability": "nonpayable",
      "type": "constructor"
    },
    {
      "inputs": [
        {
          "internalType": "uint256",
          "name": "amount",
          "type": "uint256"
        }
      ],
      "name": "addFundsToEscrow",
      "outputs": [],
      "stateMutability": "nonpayable",
      "type": "function"
    },
    {
      "inputs": [
        {
          "internalType": "uint256",
          "name": "_offerID",
          "type": "uint256"
        },
        {
          "internalType": "uint256[2]",
          "name": "a",
          "type": "uint256[2]"
        },
        {
          "internalType": "uint256[2][2]",
          "name": "b",
          "type": "uint256[2][2]"
        },
        {
          "internalType": "uint256[2]",
          "name": "c",
          "type": "uint256[2]"
        },
        {
          "internalType": "uint256[1]",
          "name": "input",
          "type": "uint256[1]"
        }
      ],
      "name": "applyToOffer",
      "outputs": [],
      "stateMutability": "nonpayable",
      "type": "function"
    },
    {
      "inputs": [
        {
          "internalType": "address",
          "name": "_offerAddress",
          "type": "address"
        }
      ],
      "name": "isAcceptedBy",
      "outputs": [],
      "stateMutability": "nonpayable",
      "type": "function"
    }
  ],
  "bytecode": "0x608060405273ddafbb505ad214d7b80b1f830fccc89b60fb7a83600460006101000a81548173ffffffffffffffffffffffffffffffffffffffff021916908373ffffffffffffffffffffffffffffffffffffffff1602179055503480156200006657600080fd5b506040516200136d3803806200136d83398181016040528101906200008c919062000334565b80600360006101000a81548173ffffffffffffffffffffffffffffffffffffffff021916908373ffffffffffffffffffffffffffffffffffffffff1602179055508360009081620000de91906200062f565b508260019081620000f091906200062f565b5081600260006101000a81548173ffffffffffffffffffffffffffffffffffffffff021916908373ffffffffffffffffffffffffffffffffffffffff1602179055505050505062000716565b6000604051905090565b600080fd5b600080fd5b600080fd5b600080fd5b6000601f19601f8301169050919050565b7f4e487b7100000000000000000000000000000000000000000000000000000000600052604160045260246000fd5b620001a5826200015a565b810181811067ffffffffffffffff82111715620001c757620001c66200016b565b5b80604052505050565b6000620001dc6200013c565b9050620001ea82826200019a565b919050565b600067ffffffffffffffff8211156200020d576200020c6200016b565b5b62000218826200015a565b9050602081019050919050565b60005b838110156200024557808201518184015260208101905062000228565b60008484015250505050565b6000620002686200026284620001ef565b620001d0565b90508281526020810184848401111562000287576200028662000155565b5b6200029484828562000225565b509392505050565b600082601f830112620002b457620002b362000150565b5b8151620002c684826020860162000251565b91505092915050565b600073ffffffffffffffffffffffffffffffffffffffff82169050919050565b6000620002fc82620002cf565b9050919050565b6200030e81620002ef565b81146200031a57600080fd5b50565b6000815190506200032e8162000303565b92915050565b6000806000806080858703121562000351576200035062000146565b5b600085015167ffffffffffffffff8111156200037257620003716200014b565b5b62000380878288016200029c565b945050602085015167ffffffffffffffff811115620003a457620003a36200014b565b5b620003b2878288016200029c565b9350506040620003c5878288016200031d565b9250506060620003d8878288016200031d565b91505092959194509250565b600081519050919050565b7f4e487b7100000000000000000000000000000000000000000000000000000000600052602260045260246000fd5b600060028204905060018216806200043757607f821691505b6020821081036200044d576200044c620003ef565b5b50919050565b60008190508160005260206000209050919050565b60006020601f8301049050919050565b600082821b905092915050565b600060088302620004b77fffffffffffffffffffffffffffffffffffffffffffffffffffffffffffffffff8262000478565b620004c3868362000478565b95508019841693508086168417925050509392505050565b6000819050919050565b6000819050919050565b6000620005106200050a6200050484620004db565b620004e5565b620004db565b9050919050565b6000819050919050565b6200052c83620004ef565b620005446200053b8262000517565b84845462000485565b825550505050565b600090565b6200055b6200054c565b6200056881848462000521565b505050565b5b8181101562000590576200058460008262000551565b6001810190506200056e565b5050565b601f821115620005df57620005a98162000453565b620005b48462000468565b81016020851015620005c4578190505b620005dc620005d38562000468565b8301826200056d565b50505b505050565b600082821c905092915050565b60006200060460001984600802620005e4565b1980831691505092915050565b60006200061f8383620005f1565b9150826002028217905092915050565b6200063a82620003e4565b67ffffffffffffffff8111156200065657620006556200016b565b5b6200066282546200041e565b6200066f82828562000594565b600060209050601f831160018114620006a7576000841562000692578287015190505b6200069e858262000611565b8655506200070e565b601f198416620006b78662000453565b60005b82811015620006e157848901518255600182019150602085019450602081019050620006ba565b86831015620007015784890151620006fd601f891682620005f1565b8355505b6001600288020188555050505b505050505050565b610c4780620007266000396000f3fe608060405234801561001057600080fd5b50600436106100415760003560e01c80630773553a14610046578063cf9579b914610062578063d1a3dd3f1461007e575b600080fd5b610060600480360381019061005b9190610373565b61009a565b005b61007c600480360381019061007791906103fe565b610140565b005b610098600480360381019061009391906106d4565b61019f565b005b600460009054906101000a900473ffffffffffffffffffffffffffffffffffffffff1673ffffffffffffffffffffffffffffffffffffffff166323b872dd3330846040518463ffffffff1660e01b81526004016100f99392919061076f565b6020604051808303816000875af1158015610118573d6000803e3d6000fd5b505050506040513d601f19601f8201168201806040525081019061013c91906107de565b5050565b6001600560146101000a81548160ff02191690831515021790555080600560006101000a81548173ffffffffffffffffffffffffffffffffffffffff021916908373ffffffffffffffffffffffffffffffffffffffff16021790555050565b6000600360009054906101000a900473ffffffffffffffffffffffffffffffffffffffff1673ffffffffffffffffffffffffffffffffffffffff16637b7321ca6040518163ffffffff1660e01b8152600401602060405180830381865afa15801561020e573d6000803e3d6000fd5b505050506040513d601f19601f820116820180604052508101906102329190610820565b73ffffffffffffffffffffffffffffffffffffffff1663bfe4ec4b876040518263ffffffff1660e01b815260040161026a919061084d565b6020604051808303816000875af1158015610289573d6000803e3d6000fd5b505050506040513d601f19601f820116820180604052508101906102ad9190610820565b90508073ffffffffffffffffffffffffffffffffffffffff1663233a117760006001888888886040518763ffffffff1660e01b81526004016102f496959493929190610b9f565b600060405180830381600087803b15801561030e57600080fd5b505af1158015610322573d6000803e3d6000fd5b50505050505050505050565b6000604051905090565b600080fd5b6000819050919050565b6103508161033d565b811461035b57600080fd5b50565b60008135905061036d81610347565b92915050565b60006020828403121561038957610388610338565b5b60006103978482850161035e565b91505092915050565b600073ffffffffffffffffffffffffffffffffffffffff82169050919050565b60006103cb826103a0565b9050919050565b6103db816103c0565b81146103e657600080fd5b50565b6000813590506103f8816103d2565b92915050565b60006020828403121561041457610413610338565b5b6000610422848285016103e9565b91505092915050565b600080fd5b6000601f19601f8301169050919050565b7f4e487b7100000000000000000000000000000000000000000000000000000000600052604160045260246000fd5b61047982610430565b810181811067ffffffffffffffff8211171561049857610497610441565b5b80604052505050565b60006104ab61032e565b90506104b78282610470565b919050565b600067ffffffffffffffff8211156104d7576104d6610441565b5b602082029050919050565b600080fd5b60006104fa6104f5846104bc565b6104a1565b90508060208402830185811115610514576105136104e2565b5b835b8181101561053d5780610529888261035e565b845260208401935050602081019050610516565b5050509392505050565b600082601f83011261055c5761055b61042b565b5b60026105698482856104e7565b91505092915050565b600067ffffffffffffffff82111561058d5761058c610441565b5b602082029050919050565b60006105ab6105a684610572565b6104a1565b905080604084028301858111156105c5576105c46104e2565b5b835b818110156105ee57806105da8882610547565b8452602084019350506040810190506105c7565b5050509392505050565b600082601f83011261060d5761060c61042b565b5b600261061a848285610598565b91505092915050565b600067ffffffffffffffff82111561063e5761063d610441565b5b602082029050919050565b600061065c61065784610623565b6104a1565b90508060208402830185811115610676576106756104e2565b5b835b8181101561069f578061068b888261035e565b845260208401935050602081019050610678565b5050509392505050565b600082601f8301126106be576106bd61042b565b5b60016106cb848285610649565b91505092915050565b600080600080600061014086880312156106f1576106f0610338565b5b60006106ff8882890161035e565b955050602061071088828901610547565b9450506060610721888289016105f8565b93505060e061073288828901610547565b925050610120610744888289016106a9565b9150509295509295909350565b61075a816103c0565b82525050565b6107698161033d565b82525050565b60006060820190506107846000830186610751565b6107916020830185610751565b61079e6040830184610760565b949350505050565b60008115159050919050565b6107bb816107a6565b81146107c657600080fd5b50565b6000815190506107d8816107b2565b92915050565b6000602082840312156107f4576107f3610338565b5b6000610802848285016107c9565b91505092915050565b60008151905061081a816103d2565b92915050565b60006020828403121561083657610835610338565b5b60006108448482850161080b565b91505092915050565b60006020820190506108626000830184610760565b92915050565b7f4e487b7100000000000000000000000000000000000000000000000000000000600052602260045260246000fd5b600060028204905060018216806108af57607f821691505b6020821081036108c2576108c1610868565b5b50919050565b600082825260208201905092915050565b60008190508160005260206000209050919050565b600081546108fb81610897565b61090581866108c8565b94506001821660008114610920576001811461093657610969565b60ff198316865281151560200286019350610969565b61093f856108d9565b60005b8381101561096157815481890152600182019150602081019050610942565b808801955050505b50505092915050565b600060029050919050565b600081905092915050565b6000819050919050565b61099b8161033d565b82525050565b60006109ad8383610992565b60208301905092915050565b6000602082019050919050565b6109cf81610972565b6109d9818461097d565b92506109e482610988565b8060005b83811015610a155781516109fc87826109a1565b9650610a07836109b9565b9250506001810190506109e8565b505050505050565b600060029050919050565b600081905092915050565b6000819050919050565b600081905092915050565b610a5181610972565b610a5b8184610a3d565b9250610a6682610988565b8060005b83811015610a97578151610a7e87826109a1565b9650610a89836109b9565b925050600181019050610a6a565b505050505050565b6000610aab8383610a48565b60408301905092915050565b6000602082019050919050565b610acd81610a1d565b610ad78184610a28565b9250610ae282610a33565b8060005b83811015610b13578151610afa8782610a9f565b9650610b0583610ab7565b925050600181019050610ae6565b505050505050565b600060019050919050565b600081905092915050565b6000819050919050565b6000602082019050919050565b610b5181610b1b565b610b5b8184610b26565b9250610b6682610b31565b8060005b83811015610b97578151610b7e87826109a1565b9650610b8983610b3b565b925050600181019050610b6a565b505050505050565b6000610160820190508181036000830152610bba81896108ee565b90508181036020830152610bce81886108ee565b9050610bdd60408301876109c6565b610bea6080830186610ac4565b610bf86101008301856109c6565b610c06610140830184610b48565b97965050505050505056fea26469706673582212202bdb13312ef51dc112cd2eae504952b7503550e168d4f53380e58e46c043205764736f6c63430008100033",
  "linkReferences": {},
  "deployedLinkReferences": {}
}